:020000040800F2
:10000000583100206D0200089F500008454E00083E
:100010009D500008613000084D7600080000000087
:10002000000000000000000000000000D5010008F2
:10003000913000080000000019020008E172000879
:10004000870200088702000887020008870200086C
:10005000870200088702000887020008870200085C
:10006000870200088702000887020008870200084C
:10007000870200088702000887020008870200083C
:100080008702000887020008192E0008870200086E
:10009000870200088702000887020008870200081C
:1000A000870200087D7300088702000887020008A5
:1000B00087020008870200088702000887020008FC
:1000C00087020008870200088702000887020008EC
:1000D00087020008870200088702000841760008AE
:1000E00087020008870200088702000800F002F873
:1000F00000F060F80AA090E8000C82448344AAF162
:100100000107DA4501D100F055F8AFF2090EBAE85F
:100110000F0013F0010F18BFFB1A43F0010318473B
:1001200014A3000034A30000103A24BF78C878C19B
:10013000FAD8520724BF30C830C144BF04680C60ED
:10014000704700000023002400250026103A28BF35
:1001500078C1FBD8520728BF30C148BF0B60704739
:10016000662909F00287692900F09E81642900F060
:100170009B81782900F0D481632901F04E80732996
:1001800001F05380002070471FB59DE8030000F088
:1001900045FD01F043F904000020002108F020FF94
:1001A000401C60600020002108F030FFE0601FBDAF
:1001B00010B510BD01F080FC1146FFF7E5FF07F018
:1001C00063FE01F01BFF03B4FFF7F2FF03BC01F075
:1001D0008BFF0000224B19680868B0E8F00F80F32D
:1001E0000988BFF36F8F4FF0000080F311884EF045
:1001F0000D0E70470000000006480068006880F39C
:10020000088862B661B6BFF34F8FBFF36F8F00DF10
:1002100000BF00BF08ED00E0EFF30980BFF36F8F70
:100220000F4B1A6820E9F00F106008B54FF050002E
:1002300080F31188BFF34F8FBFF36F8F08F000FB7F
:100240004FF0000080F31188BDE808401968086885
:10025000B0E8F00F80F30988BFF36F8F704700BFDD
:10026000A8000020EFF30580704700000948804790
:1002700009480047FEE7FEE7FEE7FEE7FEE7FEE788
:10028000FEE7FEE7FEE7FEE704480549054A064BA0
:100290007047000079730008ED000008582B00201B
:1002A00058310020582D0020582D002070B50646EA
:1002B00000F094FC056806F10B0020F00704B4423E
:1002C0009CBF002070BD2B466A68BAB11068A0427E
:1002D00010D304F1080188423CBF5068586007D32E
:1002E0005168101941601168091B01605860146061
:1002F000101D70BD13465268002AE7D121462846DA
:1003000000F078FC0028DED170BD53EA020C00F04A
:1003100069802DE9F04B4FF00006002B1FBFB3FAA8
:1003200083F503FA05F424FA05F65E4012BF16437E
:10033000B2FA82F502FA05F4C5F120051EBF22FAD1
:1003400005FC44EA0C04203556EA044C4FEA1444F8
:1003500018BF641C4FF000084FF00009904271EB89
:10036000030C39D3002919BFB1FA81F701FA07F656
:10037000B0FA80F700FA07F6C7F120071EBF20FA8F
:1003800007FC46EA0C062037B6FBF4FCA7EB050792
:10039000103F07F01F0BCBF120060CFA0BFB2CFAD9
:1003A00006F644BFB3460026202FA4BF5E464FF09A
:1003B000000B5BEA060C08BF4FF0010B19EB0B09B1
:1003C000ABFB027C48EB0608C01B06FB02CC0BFB18
:1003D00003CC71EB0C01C1E70B460246414648468F
:1003E000BDE8F08B13B54FF000004FF00001AFF304
:1003F0000080BDE81C4070470FB41CB5074B06AA2F
:100400007B4469460090059800F0DDFE00206946B7
:1004100000F0ECFE1CBC5DF814FB0000E90D0000D0
:100420000FB41CB50C0007AA009001D02044401E58
:10043000074B7B4469460190069800F0C4FE002CEF
:1004400003D06946002000F0D1FE1CBC5DF814FB0F
:10045000C10D000070B50C460546012A05D028786C
:10046000800600D5EA69002302E0012305E05B1C59
:10047000934202D2E05C0028F9D1A869E618C01ABC
:10048000A861286A184428622846AFF3008004E077
:10049000D5E9012114F8010B9047B442F8D328465E
:1004A000AFF3008070BD00002DE9F0410646002446
:1004B00010687529314616A510D0AFF300800028CA
:1004C00002DA404213A507E031688A0701D512A578
:1004D00002E0490704D511A5012401E0AFF3008033
:1004E00000210A2206F1240709E0B0FBF2FCB0FB70
:1004F000F2F302FB1C00303078541846491C0028E7
:10050000F3D123462A463046BDE8F04100F0EEBB69
:10051000000000002D0000002B0000002000000063
:1005200070B504460D4621461068AFF3008021885F
:10053000090502D50F4A7A4402E00E4A7A440E3287
:10054000002104F1240305E000F00F060009965D88
:100550005E54491C0028F7D120780023000704D5F9
:10056000702D02D009B1022311322046BDE870403F
:1005700000F0BCBBD69B00002DE9F0474FF0000A0D
:1005800089460446C0F820A02046E1688847002834
:1005900076D0252806D0D4E901219047206A401C56
:1005A0002062F1E7E168204600258847C4F81CA0D6
:1005B00006460027C4F818A02A2E09D0304607F0B6
:1005C000F0F838B304EB8708303EC8F8186019E03B
:1005D00059F8041B204604EB87029161E1688847C3
:1005E000012F064618D1E069002820DA25F0200501
:1005F0001DE0D8F8180000EB800006EB4000303812
:10060000C8F818002046E1688847064607F0C9F890
:100610000028EED1012F0AD02E2E08D12046E16805
:1006200088477F1C0646022F45F02005C4DBA069E1
:10063000002803DA404245F00105A061E80701D037
:1006400025F01005B6B1A6F14100192802D82036D0
:1006500045F400654A463146204625604D46FFF781
:100660007FFD58B1012806D0ED1D25F0070000F1EF
:10067000080989E704E005F1040985E730468AE7BF
:10068000206ABDE8F08700000FB400B58DB010A956
:10069000099000910B904FF0FF300A9000200C90D1
:1006A000064878440690064878446A4607900F99B1
:1006B00009A800F0D3FD0DB05DF814FBD70B0000C6
:1006C000EF0B00002DE9FF5F1D464FF0FF3B914609
:1006D0004FF000085F46D5E90146A96901987F1CE3
:1006E0008847296A824688470028F6D1BAF1FF3F39
:1006F0000CD0002E24F4C06419DD600614D5BAF1C4
:100700002B0F09D0BAF12D0F0ED103E0584604B0DB
:10071000BDE8F09F44F48064A96901987F1C884774
:10072000761E8246002E02DDBAF1300F03D0B9F1F9
:10073000000F26D032E0A969761E01987F1C44F490
:1007400000748847002E824605DDBAF1780F06D086
:10075000BAF1580F03D0B9F1000F10D01EE0B9F173
:10076000000F02D0B9F1100F18D1A969761E0198B7
:100770007F1C24F4007488478246102002E0082081
:1007800000E00A20814609E0A96908FB0908761EF5
:1007900001987F1C44F4007488478246002E05DDD2
:1007A0004946504600F045FD0028EDDAE969019818
:1007B0008847A00502D46FF00100A8E7E00725D123
:1007C000600613D5600502D5C8F1000000E0404680
:1007D00029680A1D2A600968220501D5087015E0FC
:1007E000220701D5088011E008600FE02868011D8C
:1007F00029600068210502D580F8008006E0210705
:1008000002D5A0F8008001E0C0F8008038467EE7FD
:100810002DE9FF5F4FF0000899461446464691695E
:10082000D2E901A7DDF838B001988847054659EAB2
:100830000B0005D009E0A1690198761C88470546A0
:10084000216A284688470028F5D1681C03D05FEA52
:10085000CA7005D015E04FF0FF3004B0BDE8F09F3E
:100860002068011D2160D0F800800AE05FEACA70AC
:1008700001D108F8015BA169761C01987F1E8847A9
:100880000546002F1ADD681C18D0B9F1000F0DD0F5
:10089000E81705EBD060421120F01F0059F8221034
:1008A0002A1A012090400142E0D107E0BBF1000F7D
:1008B000DCD12846216A88470028D7D0E169019811
:1008C0008847BBF1000F07D1002E05DD5FEACA7033
:1008D00002D1002188F80010A068B84203DDBBF106
:1008E000000F03D017B16FF00100B6E73046B4E750
:1008F00070B5064600F076F90468054630460A22CF
:10090000002100F02DFD2C6070BD0000014A00F0B8
:100910005FBD000004010020401ECAB210F8011F94
:100920008A4202D00029F9D10020704730B505462F
:100930000B462A4613F8014B12F8010B08B1A042EE
:10094000F8D01CB1002802D06D1CF1E7284630BD5C
:1009500040EA0103024630B59B0710D14FF0013445
:1009600000E008C208C91D1B9D4315EAC41FF8D04A
:1009700013F0FF0102F8011B0DD01B0AF8E711F874
:10098000013B002B02F8013B05D011F8013B002B85
:1009900002F8013BF3D130BD10B5431C02E010F862
:1009A000011B71B18107FAD14FF0013202C88C1AD4
:1009B0008C4314EAC211F9D0C01A0A0603D0C01E33
:1009C00010BDC01A10BD0A0401D0801E10BD09025E
:1009D000FCD0401E10BD421E12F8013F002BFBD17F
:1009E00011F8013B002B02F8013BF9D17047032AB3
:1009F00040F2308010F0030C00F0158011F8013B3C
:100A0000BCF1020F624498BF11F801CB00F8013B22
:100A100038BF11F8013BA2F1040298BF00F801CBE6
:100A200038BF00F8013B11F0030300F02580083ABD
:100A3000C0F0088051F8043B083A51F804CBA0E814
:100A40000810F5E7121D5CBF51F8043B40F8043B69
:100A5000AFF30080D20724BF11F8013B11F801CB9E
:100A600048BF11F8012B24BF00F8013B00F801CB6F
:100A700048BF00F8012B704710B5203AC0F00B803A
:100A8000B1E81850203AA0E81850B1E81850A0E892
:100A90001850BFF4F5AF5FEA027C24BFB1E81850EC
:100AA000A0E8185044BF18C918C0BDE810405FEA5C
:100AB000827C24BF51F8043B40F8043B08BF7047D8
:100AC000D20728BF31F8023B48BF11F8012B28BFDD
:100AD00020F8023B48BF00F8012B70474FF000029E
:100AE0000429C0F0128010F0030C00F01B80CCF140
:100AF000040CBCF1020F18BF00F8012BA8BF20F8AE
:100B0000022BA1EB0C0100F00DB85FEAC17C24BF01
:100B100000F8012B00F8012B48BF00F8012B7047AB
:100B20004FF0000200B5134694469646203922BF86
:100B3000A0E80C50A0E80C50B1F12001BFF4F7AFD1
:100B4000090728BFA0E80C5048BF0CC05DF804EBB3
:100B5000890028BF40F8042B08BF704748BF20F821
:100B6000022B11F0804F18BF00F8012B704710B511
:100B7000044610F0030F08BF11F0030F40F015807A
:100B80004FF0013E121FC0F20E8051F8043BA3EB60
:100B90000E0C2CEA030C1CEACE1C08BF40F8043BE8
:100BA000F0D0A1F1040102F10402521E08DB11F899
:100BB000013B002B00F8013BF7D11146FFF78EFFF8
:100BC000204610BD704770477047000010B500F018
:100BD00025FC001D10BD00BF0984000000487047BF
:100BE000002B002000487047F82A0020704770470B
:100BF0007047704738B504460A4600206946AFF38F
:100C00000080002808BF38BD02460099204600F049
:100C100009FC012038BD012000F028BFF8B5AFF372
:100C20000080054600200C46102000BF0646A8198B
:100C3000A0420DD9324669460020AFF3008007007C
:100C400008BF00F013FF0098A04218BF0546C41962
:100C5000FFF7C4FF05600746F01D20F007004619A6
:100C6000284600F00AF8B44208BFF8BDA21B31467E
:100C70003868BDE8F84000F0D5BB00210160C0E94C
:100C8000011070471020704770B50446051FFFF72C
:100C9000A5FF0068002C14BF446870BD002C18BF6D
:100CA000AC423CBF20466468F8D301680A18AA42E7
:100CB00018BF456003D12A680546114401602868C1
:100CC0004119A1421CBF6C6070BD616869602168F8
:100CD0000844286070BD10B5FFF784FF006810BDA0
:100CE00010B50446FFF77EFF046010BD2DE9F04704
:100CF0000D4699469246044600F12408016888068C
:100D000004D5E06921F01001216000E00120A84233
:100D100001DD471B00E00027A1697A1902EB0900F9
:100D2000081AA0612078C00602D42046AFF30080E4
:100D3000002608E0D4E901211AF806009047206A4D
:100D4000401C761C20624E45F4DB2078C0060AD594
:100D50002046AFF3008006E0D4E90121302090471F
:100D6000206A401C2062381EA7F10107F4DC07E06E
:100D7000D4E9012118F805009047206A401C206240
:100D8000281EA5F10105F3DC2046AFF30080207892
:100D9000000602D50220BDE8F0870120FBE770477E
:100DA0002DE9FF4F0C461E464FF0FF378BB0D2E9BE
:100DB0000001DDF860800A908A46C1F30A5505B942
:100DC0003D46002108464FF00000BAF1000F00F444
:100DD000400005DA00EB80004FF4400101EA5000CA
:100DE0004FEA9059B9F1010F00DDB9460A9850EA6F
:100DF0004A000ED044F61050A5F2FF3545432F149B
:100E0000B8F1000F1ED07542291E1EDDC9F1000287
:100E10001CE0B8F1010F4FF0000001D0302103E0D9
:100E2000F24305E02154401CB042FBDB3046002277
:100E3000002121540B99C1F80880C1E900200FB0AE
:100E4000BDE8F08FBD1B6D1CDEE74A4600DA694243
:100E500006A800F099FD06AB93E8070003AB83E812
:100E6000070050460A9901F0A2FB8DE80700A0F5A3
:100E700000501F3800900398002D0ADD42F21F0138
:100E80004A460844002303A90390684601F04EFE39
:100E900009E0A0F500504A461F38002303A903903B
:100EA000684601F06DFE8DE807000004000C03D0D9
:100EB0004FF0FF30410800E01046B8F1000F03D0BA
:100EC0000022009215461EE0751E05D400F0C4FAFB
:100ED000303262556D1EF9D5B3460122084302D067
:100EE00000227F1C04E02078302801D100227F1EE0
:100EF000002A099784D01DE0112D07DA00F0ACFA22
:100F0000303262556D1C50EA0102F5D1084302D01F
:100F10000098C8B10EE00021681E05E0235C625C09
:100F200063542254401E491C8142F7DBAB46A81B88
:100F3000401E0990002004F80B000B98099AC0F895
:100F40000880C0E9002B7AE711264FF0000857E728
:100F50002DE9F04F88460446D21D22F0070191B0DA
:100F6000D1E90001CDE90A0106F071FB02460B98B8
:100F7000C00F01D02D2007E02068810701D52B206C
:100F800002E0202101EAC000032A099001D0072ACB
:100F900005DB03464146204600F0ACFA0BE1207821
:100FA000800601D5E06900E00620B8F1650F8146B2
:100FB00006D0B8F1660F18D0B8F1670F70D131E0E4
:100FC0000020B9F1110F009001DB112301E009F1BC
:100FD00001030AAA01A90CA8FFF7E2FEDDE90C70E3
:100FE000002609F10105834647E001204B460090A9
:100FF0004FF000470AAA01A90CA8FFF7D1FEDDE9CE
:101000000DB00C995D46002610B909F101000D18CC
:10101000B9EB050003D4C0F1FF3609F10105A5EBDA
:1010200009002BE0B9F1010F01DA4FF001090020AE
:10103000B9F1110F0090484601DD112300E003468D
:101040000AAA01A90CA8FFF7ABFEDDE90C704D461A
:1010500000268346207800070AD4AB4500DA5D46B7
:1010600001A8012D04DD411911F8011C302907D018
:101070004F4502DA17F1040F04DA012082460FE02F
:101080006D1EEEE7002F02DCED1B3E4403E0781CF2
:10109000A84200DD7D1CB81B00F1010A4FF000479B
:1010A0002078000703D4AA4501DB4FF0FF3A002166
:1010B000B7F1004F0DF143088DF8431024D0022002
:1010C0002B23002F01DA7F422D230A21021EA0F1DB
:1010D000010000DC5FB197FBF1FC97FBF1F201FB33
:1010E0001C7C17460CF1300C08F801CDEEE7A8F196
:1010F000010003702188090501D5452100E0652123
:10110000A0F1010800F8011C09980FA9A1EB08073C
:10111000FF1D00B10120411901EBEA70A1693844BB
:10112000081A401EA0612078C00602D42046AFF302
:101130000080099828B1D4E901219047206A401C19
:1011400020622078C00622D52046AFF300801EE042
:10115000002E04DBB34502DD01A8805D00E03020F5
:10116000D4E901219047206A401C2062761CAAF134
:1011700001005FEA000A0AD100F050F9C068016876
:10118000405CD4E901219047206A401C2062281E5F
:10119000A5F10105DCDC07E0D4E9012118F8010B19
:1011A0009047206A401C2062381EA7F10107F3DC3B
:1011B0002046AFF30080032011B041E601694A1CCC
:1011C00002610878704700B58FB0CDE90131002188
:1011D000059105497944CDE9031011466846FFF7AA
:1011E000CBF90FB000BD0000E5FFFFFF0A6802F871
:1011F000010B0A607047D1E900239A4202D2531CC6
:101200000B601070704710B5436913B1AFF30080E5
:1012100001E0FFF71FF9012010BD127800F1240151
:101220000A7000224A700122EDE711684FF0FF3288
:10123000E9E73A2800D2303820F02002412A01D3D1
:10124000A2F13700884201D34FF0FF307047000011
:10125000026811441378016018467047D16005494F
:1012600079445161044979441162002111611146A8
:1012700000F080B9EDFFFFFF79020000426842B143
:10128000016811F8013B23B1521EC0E90012184653
:1012900070470121C160881E704742685AB1C36817
:1012A000016843B983688B4205D0491E521CC0E9CE
:1012B0000012002070474FF0FF3070470FB400233A
:1012C00000B589B00CA900910B99CB60214B7B44F0
:1012D0000693214B7B44079304236FF00042CDE932
:1012E00001321E4A7A446B4608920246002008F0FA
:1012F0009EFE09B05DF814FB70B506464FF0FF3056
:1013000015460C46324686B00091CDE9010169468A
:101310000020049004A8FFF7D1FF0246049821188A
:1013200025B108B1084600E020462860049800284E
:101330000DD0002A02DD0098884208D03246081BF2
:1013400069460094CDE9010404A8FFF7B7FF06B091
:1013500070BD0000ABFFFFFFC3FFFFFFFB010000FC
:101360002DE9F04791460F4680460446002614F8C2
:10137000015B2DB1FFF72AFC0068405DC007F6D184
:101380002B2D02D02D2D18D0641E4A4639462046FA
:1013900000F0AAFA27B13968A14201D1C7F800804C
:1013A0004FF0020471050BD54042002803DDFFF722
:1013B00019FC0460A007BDE8F08746F48066E4E706
:1013C0000028F8DAFFF70EFC04606FF00040F2E747
:1013D0002DE9F04115460E46040002D12C6804B9EF
:1013E0000BA4204600F059FB0444207870B1274636
:1013F0003146384600F041FB0444207810B100200B
:1014000004F8010B38462C60BDE8F0810027F9E7AD
:101410000000000000487047F82A0020004870478C
:10142000182B0020034640688C46002818BF8842CD
:101430003CBF03464068F8D318681844884207D078
:101440000CF1030020F00700001D411A521A01465A
:10145000081D0A60FFF718BC30B5B0F10A024FEA68
:10146000900E71F100034EEA817EB0EB0E0061EB4D
:1014700091014FEA101E4EEA017E10EB0E0041EB87
:1014800011114FEA102E4EEA016E10EB0E0041EBE7
:1014900011214FEA104E4EEA014E10EB0E0041EBC7
:1014A0001141401841F100014FEAD00040EA41707B
:1014B0004FEAD10110EB80054FEA810444EA9074B1
:1014C00044EB01046D1944EB0404521BA3414FF09B
:1014D000000348BF0A3200D530BD401C41F1000175
:1014E00030BD10B50446FFF771FB0068005D00F0E9
:1014F000010010BD2DE9F0411F4604460326016896
:10150000072A01F4006004DB08B116A505E016A562
:1015100003E008B115A500E015A521F0100020603A
:10152000A069C01EA0610FB1401EA0612046AFF3AC
:1015300000804FB1D4E9012138469047206A401C11
:101540002062C01C206206E0206AFAE7D4E901218B
:1015500015F8010B9047761EF8D22046AFF30080B5
:10156000BDE8F0814E414E006E616E00494E46006E
:10157000696E66002DE9F34F4FF0000A0C4656469F
:101580008DB001200C9001F10C000B9062690B985A
:1015900001219047051E2DD0252D2CD0216A88478A
:1015A000C0B162690B9801219047216A88470028E1
:1015B000F7D16269411E0B98904700E0761CA16943
:1015C0000D988847216A88470028F7D1E1690D986E
:1015D0008847DBE7A1690D988847A842074601D1F3
:1015E000761CD3E7E1690D9888477F1C02D1BAF1D8
:1015F000000F6FD06BE162690B9800273D463946BA
:1016000090472A2804D162690B980121904701254F
:10161000DFF8D08262690B9801219047A0F1300178
:101620000A290AD24745E5DC07EB870100EB4107B1
:10163000303FDFD445F01005ECE7E90601D46FF048
:1016400000476C280AD04C2814D0682815D06A2886
:101650000DD074281CD07A281AD01DE062690B982E
:10166000012190476C2802D045F0040514E045F0B4
:1016700002050DE045F020050AE062690B980121A2
:101680009047682802D045F0080505E045F400655C
:1016900062690B9801219047C4E9015765283DD044
:1016A00019DC58287AD00CDC452837D004DC2528F2
:1016B00026D041289ED131E046282FD0472899D105
:1016C0002CE05B2877D0612828D063287CD0642860
:1016D00023D15AE0F6E06F2848D008DC66281DD0F8
:1016E00067281BD0692821D06E2816D127E07028E2
:1016F00045D0732868D0752847D078280DD14DE0A3
:10170000A1690D988847252805463FF469AFE1692E
:101710000D9888476D1C3FF46AAFD8E00D992346B9
:101720006A466FF0010008F082FCC5E045F0400019
:1017300023464FF000026060A80736D43EE0E80779
:101740007FF447AF2068011D21600068290501D59D
:1017500006701BE7290701D5068017E7A90703D5FF
:10176000F117C0E9006111E706600FE745F040009E
:1017700023464FF008026060A80716D41EE040F62A
:101780000E0125EA0100606016E045F040002346A6
:101790004FF00A026060A80707D40FE045F0400050
:1017A0006060A80708D5234610220D996FF001004C
:1017B000AFF3008080E007E0102223460D996FF020
:1017C0000100FEF77FFF77E04FF0000963284F46E6
:1017D000C8464B46CB4602D05B2806D038E0E80628
:1017E00001D40120A060012732E06269D4F80CB076
:1017F0000B98012190475E2807D14FF00109494617
:101800006269D4F80CB00B989047216939B900216E
:101810000A4603AB43F82120491C0829FADBD8B358
:10182000216949B308F1010862690B9801219047C9
:101830005D28F4D1B9F1000F09D0002003A951F8B7
:101840002020D24341F82020401C0828F7DB03ABBE
:101850002069002820794FEA40701ED05B4622465E
:10186000CDF80080CDE901970D9900286FF00100B7
:1018700020DAAFF300801FE0C11703AA00EBD161AB
:101880004B1121F01F0102EB8302411A1368012062
:10189000884003431360C7E719E00D9922460028EA
:1018A0006FF00100009702DAAFF3008004E0FEF76A
:1018B000AFFF01E0AFF3008000280ADA401C06D138
:1018C0000C9820B14FF0FF300FB0BDE8F08F5046BC
:1018D000FAE7E90701D10AF1010A064400200C9059
:1018E00054E60000CCCCCC0C2DE9F05F82461546C6
:1018F0008B4600270AF10104B9460078302801D050
:101900009DB113E014F8010B0127782803D0582863
:1019100001D045B10AE00DB1102D07D1002714F810
:10192000010B102502E0082500E00A250026B0463C
:101930000EE005FB080005FB06F101271FFA80F801
:1019400001EB1046B6F5803F00D3B94614F8010B01
:101950002946FFF76EFC0028EBDABBF1000F05D03B
:101960000FB1641E00E05446CBF80040B9F1000FFF
:1019700006D0FFF737F902210160C81EBDE8F09FCD
:1019800048EA0640FAE700002DE9F047814616468E
:101990008AB0354878440DC88DE80D003248784447
:1019A000801C03AC0DC884E80D0041F69B30084450
:1019B000372190FBF1F290FBF1F5A5F1800501FBD9
:1019C00012041B3C02D56442012000E00020DFF835
:1019D00098A080460027FA44AAF1BE0A0EE0E0076C
:1019E0000AD03246684607EB470101230AEB810122
:1019F00001F0C6F88DE8070064107F1C002CEED1C2
:101A0000194F7F44AE3F19E0E80715D007EB0410EB
:101A10000DF1180A90E80E008AE80E00C068F04246
:101A200001D1981908903246012306A903A801F0B4
:101A3000A7F803AB83E807006D10641C002DE3D109
:101A40004FF0010332466946B8F1000F03A802D0F7
:101A500001F06CF801E001F093F8C9E90001C9F860
:101A600008200AB0BDE8F0871C88000010B500F01F
:101A7000D3FABDE8104000F0CABA30B503461D786D
:101A80001DB10A4603E0AC4201D1181A30BD12F86C
:101A9000014B002CF7D15B1CF1E730B503461D78F4
:101AA0003DB10A4612F8014B1CB1AC42FAD15B1CA5
:101AB000F5E7181A30BD70477546FFF7ABFCAE4628
:101AC00005006946534620F00700854618B020B54A
:101AD000FEF7DAFBBDE820404FF000064FF00007AC
:101AE0004FF000084FF0000B21F00701AC46ACE8C6
:101AF000C009ACE8C009ACE8C009ACE8C0098D4633
:101B0000704700002DE9FF4F06468BB00878FF288C
:101B100006D0491C2D2805D000244FF0000908E00C
:101B200000200CE00124F8E709EB8903491C00EBD5
:101B300043090878FF28F7D114B1C9F100008146A4
:101B4000107800252C46AA4629462D2801D02B289E
:101B500004D1521C2D2813D0002082468B461078C9
:101B6000FF280FD04FF0000C0A21521CA5FB017872
:101B700004FB018105FB0C11C5194BEB0104EEE7D9
:101B80000120EAE7002108464FF00000BAF1000FFB
:101B900002D000EB80004008C0F38157012F01DD27
:101BA0004FF0FF370E9955EA040009EB01080BD0FE
:101BB0004FF0020918F5FA7F16DA4FEACA70002FC3
:101BC000706008DD012007E04FEACA70C6E900B086
:101BD0000FB0BDE8F08F00203060FFF703F8C0F8C9
:101BE00000901821084616E0B8F5FA7F18DD002F9E
:101BF00002DAF748784401E0F6487844D0E900106A
:101C0000C6E9001040EACA707060FEF7EBFFC0F84A
:101C10000090142108460FB0BDE8F04F08F0A2B9BB
:101C2000002108464FF00000B8F10001099002DAE7
:101C3000C7F1000200E03A4601DAC8F1000106A847
:101C4000FFF7A2FE06AB93E8070003AB83E80700AB
:101C500044F23E005BEA04010090584604D144F28D
:101C60001E012C465D460091210C0904014306D15A
:101C70000099240444EA15442D041039009104F01D
:101C80007F41014306D10099240244EA15642D02E4
:101C90000839009104F07041014306D100992401F4
:101CA00044EA15742D01091F009104F040410143DD
:101CB00006D10099A40044EA9574AD00891E0091F4
:101CC00004F00041084304D100986D196441401E9E
:101CD00000904FF001033A466846B8F1000FCDE995
:101CE000014503A902DD00F060FF01E000F033FFD1
:101CF000BAF1000F04460D4601D084F000440021E3
:101D000008464FF00000099940F2FF77484010F074
:101D10000C0F07D124F00040284303D0C4F30A502D
:101D2000B84212D1FEF75EFFC0F80090C4F30A502B
:101D3000B8420AD1A8487844D0E90010C6E900109A
:101D400004F000410843706042E7C6E900543FE7F1
:101D50002DE9FF4F1F464FF0000A4FF0FF38454670
:101D600091B0D7E90146CDF83CA0FFF757FBC0681A
:101D70000168405C1090B96912986D1C8847396AF7
:101D8000814688470028F6D1B9F1FF3F0AD0002EDE
:101D900024F4D06411DDB9F12B0F08D0B9F12D0F67
:101DA0000BD102E0404615B013E744F48064B969F2
:101DB00012986D1C8847761E8146600504A901D5DE
:101DC0002D2000E02B20002E01F1010B0DF1300839
:101DD0008DF810003FDDB9F1690F08D0B9F1490F56
:101DE00005D0B9F16E0F02D0B9F14E0F1CD13B46B0
:101DF00001A8009580E85002DDE912126FF00200A0
:101E000008F019F9C11CCED10EE0B96912986D1C09
:101E1000884781461398761E44F4007405600F9835
:101E2000401C002E0F9016DDB9F1300FEDD0B9F146
:101E3000780F02D0B9F1580F0DD10F9801280AD1AF
:101E40003B46CDE90054DDE91212001F029608F06E
:101E5000F0F8C11CA7D1109989453ED144F0800407
:101E600006E01399681CAAF1010A44F400740860A2
:101E7000B9696D1C1298761E884730288146F0D0CB
:101E80002BE01099894505D1200603D4761E44F035
:101E9000800418E0484605F084FC08B3761E0DF176
:101EA00023018B4544F4007408D2A9F130000BF8EB
:101EB000010B200607D5AAF1010003E0200602D499
:101EC0000AF101008246A00502D51399681C08603A
:101ED000B96912986D1C88478146002ED1DC53E009
:101EE000002E51DDB9F1650F02D0B9F1450F4BD18C
:101EF000A00549D5B9696D1C1298761E24F440746A
:101F00008847002E81460CDD2B2804D0B9F12D0F17
:101F100007D144F48074B96912986D1C8847761E05
:101F20008146E00501D52D2100E02B2108F8011B99
:101F3000CDF8008021E0761E0DF13901884544F48A
:101F400000740CD2A9F1300010F0FF0088F80000F6
:101F500002D10099884509D908F1010806E0E00599
:101F600001D51E4801E042F20F708246B96912980D
:101F70006D1C8847814613980560002E04DD484695
:101F800005F00FFC0028D6D1F96912988847FF2088
:101F900053468BF8000088F8000000200A900B9050
:101FA00004AA0CA90AA8FFF7ADFDA00502D46FF0A2
:101FB0000100F8E614F0240F12D0E0071CD13868B5
:101FC000DDE90A12031D3B600068C0E9001213E05E
:101FD00064880000568800001A870000F1D8FFFFCF
:101FE0000AA9684605F06CFBE00705D13868009A3D
:101FF000011D3960006802602846D4E610B5044629
:10200000AFF300802046BDE81040FEF7DCB80028A2
:1020100001D000F069B8704710B5012805D0002143
:1020200003A000F067F8012010BD09A1F8E7000047
:1020300053494752544D454D3A204F7574206F66B1
:102040002068656170206D656D6F72790000000019
:102050003A2048656170206D656D6F727920636FFD
:1020600072727570746564004FF0013C50F8042B77
:1020700051F8043B9A4221D1A2EB0C03934313EA9B
:10208000CC1317D150F8042B51F8043B9A4215D1C8
:10209000A2EB0C03934313EACC130BD150F8042B9F
:1020A00051F8043B9A4209D1A2EB0C03934313EA83
:1020B000CC13DBD04FF00000704700BFD01A01BA3C
:1020C000B1FA81F101F0180122FA01F0CB40C1F11F
:1020D0002001DBB2C0B2C01A2CFA01F3D11A91432D
:1020E00011EAC311E6D1704701491820ABBEFEE7E3
:1020F0002600020070B505460C460A2000E06D1C63
:1021000000F011F835B128780028F8D102E0641CFD
:1021100000F009F814B120780028F8D1BDE870402B
:102120000A20AFF3008008B569468DF8000003204F
:10213000ABBE08BD2DE9FF4F1F464FF03C0987B0ED
:102140004FF00042DDE9141001F10108DDF858A05C
:1021500002EA40500390002005908346054604465D
:102160000490B969461E08988847AAF1010A0290AE
:10217000BAF1000F3BDD02982E2815D01021FFF791
:1021800058F800282EDB4FF0010B0599014317D0BA
:10219000B9F1000F0BDB4A46C11700F0F5F9054312
:1021A0000C43A9F1040905E0012004900BE008B1FB
:1021B00045F0010501200590049820B9361D02E084
:1021C000049800B1361FB969089808F101088847DA
:1021D000BBF1000FAAF1010A0290C9D00999C1F818
:1021E0000080C5E70298702808D0502806D0F96909
:1021F00008988847BBF1000F14D04FE000200290F0
:102200000120BBF1000F049009D0B969089808F1CA
:1022100001088847AAF10109B9F1000F07DCF96943
:10222000089888476FF001000BB0BDE8F08F2B28AD
:1022300004D02D280CD14FF0FF300490B9690898D4
:1022400008F101088847A9F10109B9F1000FE6DD9D
:10225000411CE4D00A21FEF7ECFF0028DFDB0299E5
:1022600008F1010801EB810100EB41000290B9691E
:10227000089888470A21FEF7DCFF099AA9F10109AD
:10228000B9F1000FC2F8008001DD0028E7DAF96932
:10229000089888470499029800FB016655EA0400F3
:1022A00004D004F04041090002D006E0039898E011
:1022B000A40044EA9574AD00B61E04F00041080085
:1022C00002D16D196441761E159810F0240F03D0C9
:1022D0004FF00B095C4803E04FF028096FF07D00D8
:1022E0008246564507DAAAEB06018944B9F1410F47
:1022F00001DD4FF0410901200021A9F1010200F0A8
:1023000043F9024628400B462140084301D00121F1
:1023100000E00021501E029143F1FF31284021408E
:10232000084301D0012000E000200299834651EAD1
:102330000B014FD0002108464FF00000039900F434
:10234000400039B100EB80004FF4400100EBD07049
:1023500001EA60008015012802DD4FF0FF3000E047
:1023600013D0401C36D0029860B3BBF1000F0CD1E3
:102370004A460120002100F007F928402140084387
:1023800001D0012000E00020E0B101204A460021F8
:1023900000F0FAF8034640190A4661412D1A8C41B3
:1023A00011D3B9F1400F09DD159810F0240F02D0B8
:1023B000AAF1340603E0AAF1170600E0761C002516
:1023C0004FF0004406E05B1E42F1FF3220EA0305B5
:1023D00021EA0204CAF10100B04206DA1B4903985F
:1023E00008430190002000900EE0039AC4F3D3212B
:1023F000E80A0A43164940EA44500A433146CDE907
:102400000002684605F0C2F9159810F0240F0BD0B1
:102410001598C00715D13868DDE90012031D3B602F
:102420000068C0E900120CE002A8694605F048F90E
:102430001598C00705D13868029A011D39600068F7
:1024400002604046F0E6000002FCFFFF0000F07F63
:102450000000F03F2DE9FF4F92461D4685B04FF03A
:102460000041DDE9124BDDE914727F1E01EA4B5099
:10247000414940F0FF4940EA0108002122F02000D4
:102480004928049102D04E2828D04CE03BA00126D8
:1024900007C88DE80700A9690698641C88477F1E55
:1024A000014606D41DF8060018B121F02001814232
:1024B0000BD0E96906988847032E34D0082E32D015
:1024C0006FF0010009B0BDE8F08F761C032E01D03B
:1024D000082EE0D1601CCAF80000DCE7A969069864
:1024E000641C88477F1E2AD420F02000412826D172
:1024F000A9690698641C88477F1E20D420F020001C
:102500004E281CD1A9690698641C88477F1E48F490
:10251000002849F48009CAF8004001D4282806D0D0
:10252000E969069888475FEACB7012D022E0A96972
:102530000698641C88477F1E01D4002803DAE969E5
:1025400006988847BCE72928F1D1641CCAF80040E6
:10255000E9E71BF0240F07D028680499031D2B60BE
:102560000068C0E9001805E02868021D2A600068BC
:10257000C0F800902046A5E70000F07F494E46498C
:102580004E49545900000000B2F120030AD5C2F1AF
:10259000200301FA02F120FA03F300FA02F041EA03
:1025A0000301704700FA03F14FF0000070475FEA43
:1025B000400C08BF91F0000F4FEA8C234FEAC12274
:1025C00043EA51514FEA1C5018BF00F5F0404FEA62
:1025D000300018BF41F000415FEA6C5C00F02980D8
:1025E000BCF1FF3F08BF40F080407047130C06BFAE
:1025F00012044FF0100C4FF0000C130E04BF120227
:102600000CF1080C130F04BF12010CF1040C930F12
:1026100004BF92000CF1020CD30F04BF52000CF166
:10262000010C11464FF00002A0F11F00A0EB0C00BE
:10263000704711F0004F08BF704731F000413FF480
:10264000D5AF0B0C06BF09044FF0100C4FF0000C77
:102650000B0E04BF09020CF1080C0B0F04BF09019B
:102660000CF1040C8B0F04BF89000CF1020CCB0F92
:1026700004BF49000CF1010CCCF12003A0EB0C00CD
:1026800022FA03F302FA0CF241EA030100F101001D
:10269000704720F07F4C80EA030023F07F47ACEBCB
:1026A000070303F57C5300F0004003F1FF032DE91D
:1026B00080494FEA154B09B44FEA144325EA0B4E03
:1026C00024EA03480FF2042606EB132749083E7854
:1026D0005FEA320203FB0667C7F5000707FB06F651
:1026E0004FEA54374FEAD64606F1020607FB066C5E
:1026F000CCF1005C4FEA1C472CEA074C07FB06F4C0
:102700000CFB06F504EB15464FEA961634BF002085
:102710004FF000404FEAD13706FB07FC4FEA1C4C54
:102720000CFB0BF7D21B03FB0CF761EB07010CFB57
:102730000EF7B0EB074072EB17420CFB08F734BF03
:10274000A2EB0742B2EB074261EB17414FEA0C44A0
:102750004FEA910706FB07FC4FEA1C4C0CFB0BF7FA
:10276000B0EBC74072EB573203FB0CF734BFA2EB60
:10277000C742B2EBC74261EB57310CFB0EF7B0EB2F
:10278000C70072EB57720CFB08F734BFA2EBC7020D
:10279000B2EBC70261EB5771039F4FEA816141EAD7
:1027A000921104EBCC044FEAD1374FEA826206FB68
:1027B00007FC42EA90124FEA80604FEA1C4C0CFB87
:1027C0000BF7D21B03FB0CF761EB07010CFB0EF7B9
:1027D000B0EB074072EB17420CFB08F734BFA2EBDB
:1027E0000742B2EB074261EB17414FEA8C554FEAC3
:1027F000910704EB9C2406FB07FC4FEA1C4C0CFBE6
:102800000BF7B0EBC74072EB573203FB0CF734BF4A
:10281000A2EBC742B2EBC74261EB57310CFB0EF79C
:10282000B0EBC70072EB57720CFB08F734BFA2EB9A
:10283000C702B2EBC70261EB577115EB4C254FEAAB
:10284000816141EA92114FEA82624FEAD13742EA4E
:10285000901206FB07FC44F100044FEA80604FEA47
:102860001C4C0CFB0BF7D21B03FB0CF761EB0701B5
:102870000CFB0EF7B0EB074072EB17420CFB08F7AE
:1028800034BFA2EB0742B2EB074261EB174115EBF5
:102890001C154FEA813141EA92414FEA823242EA05
:1028A00090424FEA80304FEA0C7644F1000448EA47
:1028B00003434EEA0B484FF0000EB2EB080C71EBED
:1028C000030724BF624639464EEB0E0E4FF0000B55
:1028D0000018524149414BEB0B0BB2EB080C71EB6A
:1028E00003077BF1000B24BF624639464EEB0E0E08
:1028F0004FF0000B0018524149414BEB0B0BB2EB70
:10290000080C71EB03077BF1000B24BF62463946CC
:102910004EEB0E0E51EA020718BF46F0010616EB09
:102920000E7655F1000254F1000103D5BDE889018E
:10293000BDE80088BDE88901BDE80048B6195241EC
:1029400041EB0101A3F10103704780807F7E7D7C14
:102950007B7A7978777676757473727171706F6E31
:102960006E6D6C6C6B6A6A696868676666656464DC
:10297000636362616160605F5F5E5E5D5D5C5C5B66
:102980005B5A5A59595858575756565555555454D5
:10299000535352525251515050504F4F4F4E4E4D33
:1029A0004D4D4C4C4C4B4B4B4A4A4A49494948487F
:1029B00048474747474646464545454444444443BF
:1029C00043434342424242414141000046EA0646F7
:1029D000A3F570534FEA164646EA42564FEAD22212
:1029E00042EA415210B54FEAD121A3F1010300F0B0
:1029F0002FF820F0004000F1020C00F0004701EB3E
:102A000000501146BCF5006F40EA070000D210BD2F
:102A1000BAF1000F0AD01CB503B44FF004004FF018
:102A200004014FF000000FBCBDE810404FF0000162
:102A3000BBF1010FB9BF04484FF0FF31034800213B
:102A400040EA070010BD00BFFFFFEF7F0000F07FEE
:102A5000002B9C4630D477002BD01CB54FEA3707AB
:102A600003B44FF010004FF01001BAF1000F06D080
:102A7000BCF1000FDCBF40F0080040F008014FF04F
:102A800000000FBCBDE810400BF1010BBBF1010FC2
:102A900008BF5FEA170722BF12F1010211F101011D
:102AA0004FF0004143F1000300F0004043EA000012
:102AB0007047F9D35708D0E746EA064613F1400FAE
:102AC0004FEA16461FDD13F1200FDFBF16430A46FB
:102AD000002120335B42BED0C3F1200746EA064600
:102AE00002FA07F74FEA164646EA0706C3F120073F
:102AF00022FA03F201FA07F721FA03F14FF000037B
:102B000042EA0702A7E746EA020646EA06464FEA15
:102B1000164646EA0106BCBF46EA0646360C4FF0AA
:102B200000034FF000024FF0000194E72DE9804CC4
:102B30009A46934670B491E8380007C831EA400CD1
:102B400048BF34EA430C03D5FFF7A3FDFFF780FF2E
:102B5000F0BCBDE8008C2DE9804C9A46934670B4D9
:102B600091E8380007C831EA400C48BF34EA430C0A
:102B700003D5FFF78EFDFFF729FFF0BCBDE8008C01
:102B80002DE9804C9A46934670B491E8380007C806
:102B900010F0804F08BF13F0804F03D100F01AF8F7
:102BA000FFF756FFF0BCBDE8008C2DE9804C9A463B
:102BB000934670B491E8380007C810F0804F08BF02
:102BC00013F0804F03D100F005F8FFF7FFFEF0BCD3
:102BD000BDE8008C20F07F4780EA030023F07F4CA3
:102BE00007EB0C03A3F57C5300F00040A3F1FE03B8
:102BF00092F0000F00F0B38095F0000F00F07780A6
:102C00002DE901494FEA11404FEA144621EA0048F4
:102C100000FB06FC24EA064708FB06F607FB08F85B
:102C200000FB07F718EB06484CEB164C4FEA124B2B
:102C300018EB07484FEA15464CEB174022EA0B4EBB
:102C40000BFB06FC25EA06470EFB06F607FB0EFE0D
:102C50000BFB07F71EEB064E4CEB164C4FF0000635
:102C60001EEB074E4CEB174B18EB0B0840F1000026
:102C700018EB0E0B58EB000840F100008F1A4FF0D4
:102C800000013CBFC943661B14BFB5EB040C002117
:102C90003CBFC943F61B4FEA17444EEA8E0E27EAA3
:102CA00004454FEA1C4704FB07622CEA074C05FB6E
:102CB00007F70CFB05F604FB0CFC16EB074642EB92
:102CC000174216EB0C4642EB1C421BEB060658EB78
:102CD0000202414146EA9E0601D5BDE80189B619C6
:102CE000524141EB0101A3F10103BDE801894FEA23
:102CF00014454FEA114724EA054621EA074C05FB33
:102D000007F406FB07F70CFB06F105FB0CFC11EBC7
:102D1000074144EB17444FEA124711EB0C4144EBD7
:102D20001C4422EA074C05FB07F206FB07F70CFBE5
:102D300006F605FB0CFC16EB074642EB174216EBBA
:102D40000C4642EB1C456A1854F1000148BF70471D
:102D5000B619524141EB0101A3F10103704795F00F
:102D6000000F37D04FEA11424FEA144721EA0246DA
:102D700024EA074C02FB07F106FB07F70CFB06F4FD
:102D800002FB0CFC14EB074441EB17414FEA1547DB
:102D900014EB0C4441EB1C4125EA074C02FB07F500
:102DA00006FB07F70CFB06F602FB0CFC16EB0746CE
:102DB00045EB174516EB0C4645EB1C42121951F139
:102DC000000148BF7047B619524141EB0101A3F120
:102DD000010370474FEA14454FEA114724EA0546BC
:102DE00021EA074C05FB07F106FB07F70CFB06F28F
:102DF0004FF0000605FB0CFC12EB074241EB1741BC
:102E000012EB0C4251EB1C4148BF7047921841EB4A
:102E10000101A3F101037047014800F0C1B90000AE
:102E20002813002070B5044600688168C943C907AB
:102E300017D1816821F00101816000F067FD05462E
:102E40000AE000BF00F062FD401B022804D92068A0
:102E50008068C043C00706D020688068C043C007B0
:102E6000F0D0002070BDA06A40F01000A062E06ABF
:102E700040F00100E062012070BD0000F8B50026BE
:102E80000446009600688168C943C9072DD081684F
:102E900041F001018160164816490068B0FBF1F06D
:102EA00000E0401E00900028FBD100F02FFD0546F9
:102EB00016E000BF00F02AFD401B022810D9206850
:102EC0008068C043C0070BD0A06A40F01000A06229
:102ED000E06A40F00100E06284F824600120F8BD5F
:102EE00020688068C043C007E4D10020F8BD00001E
:102EF000A400002040420F0010B500F057F806482B
:102F000000F02CFB4FF47A71034800F089FABDE819
:102F10001040014800F041B92813002010B500F01E
:102F200057F8064800F01AFB4FF47A71034800F096
:102F300077FABDE81040014800F02FB928130020AF
:102F400010B500F057F8064800F008FB4FF47A710E
:102F5000034800F065FABDE81040014800F01DB9D3
:102F60002813002010B500F057F8064800F0F6FAD4
:102F70004FF47A71034800F053FABDE8104001485D
:102F800000F00BB92813002010B500F057F80648E0
:102F900000F0E4FA4FF47A71034800F041FABDE81A
:102FA0001040014800F0F9B8281300200EB50020A9
:102FB000009001200190052002906946034800F02E
:102FC0006DF8002801D000F064F80EBD2813002031
:102FD0000EB507200090012001900520029069465F
:102FE000034800F05BF8002801D000F052F80EBD55
:102FF000281300200EB50820009001200190052024
:1030000002906946034800F049F8002801D000F01A
:1030100040F80EBD281300200EB5092000900120B5
:103020000190052002906946034800F037F8002817
:1030300001D000F02EF80EBD281300200EB501209F
:1030400000900190052002906946044800F026F89F
:10305000002801D000F01DF80EBD0000281300204C
:10306000FEE70000084810B5007828B101231A4691
:103070000549064801F08CFEBDE8104001220249D6
:10308000024801F035BE0000650000201414002045
:10309000704700F0F9FC72B6FEE77047F8B50024FF
:1030A000009490F824202546012A12D0012280F8AD
:1030B00024204A681F23072A0DD20668776B521E08
:1030C00002EB820293409F430B6893401F43776358
:1030D00019E00220F8BD06680D2A0AD2376BD21F0C
:1030E00002EB820293409F430B6893401F43376378
:1030F00009E0F76A0D3A02EB820293409F430B68A6
:1031000093401F43F7620A68072306680A2A0AD316
:10311000F7680A3A02EB420293409F438B68934060
:103120001F43F76008E0376902EB420293409F4378
:103130008B6893401F4337610A68102A01D0112A17
:1031400020D1124B02689A4217D193681B0219D4FE
:10315000936843F4000393600968102912D10C4965
:103160000C4A0968B1FBF2F101EB8101490000E072
:10317000491E00910029FBD104E0816A41F0200141
:103180008162012480F824502046F8BD00240140CB
:10319000A400002040420F0070470068C06C7047D8
:1031A00010B5044600684168890626D5016889077C
:1031B00023D5A16AC90603D4A16A41F40071A162B2
:1031C0008168C1F34241072910D1217B71B941685F
:1031D00021F020014160A06A20F48070A062A06A02
:1031E000C00403D4A06A40F00100A0622046FFF7AB
:1031F000D3FF21686FF0120008602068416809065B
:103200002ED5016849072BD5A16AC90603D4A16A46
:1032100041F40051A1628168C1F30231072909D04C
:103220004168490515D48168C1F34241072910D18D
:10323000217B71B9416821F080014160A06A20F4CE
:103240008050A062A06AC00503D4A06A40F00100CB
:10325000A0622046FFF721FF21686FF00C00086094
:103260002068416849060DD50068C0070AD0A06AE9
:1032700040F48030A062204600F094F821686FF09E
:103280000100086010BD00002DE9F0414FF000077B
:1032900004003D467ED0A06A002628B9E66284F884
:1032A0002460204600F080F82046FFF7BBFDA16AAD
:1032B000C90600D420B1A06A40F01000A06269E005
:1032C000A16A21F4885141F00201A1626268E169BA
:1032D000237B0A4347EA43010A43A1684FF48077FE
:1032E000B94209D0012907D05FF0000194F814C059
:1032F000BCF1010F02D00AE03946F7E7F3B1A36A47
:1033000043F02003A362E36A43F00103E36223680E
:10331000D3F804C02CF4694C4CEA010CC3F804C087
:1033200021688B68DFF870C003EA0C0313438B60DD
:10333000A168B9420BD0012909D00CE0DFF85CC0CC
:10334000A3690CEB43330B4343F40061DFE7218AAD
:103350000D05A5F580152168CB6A23F470032B4376
:10336000CB62216889680E4B1940914208D1E66210
:10337000A16A21F0020141F00101A162BDE8F081E2
:10338000A06A20F0020040F01000A062E06A40F065
:103390000100E0620120F1E7FDF7E1FF00E0FFFF3F
:1033A000FE0E1FFF7047000010B586B0002100918F
:1033B00001910291039100681549884226D1154870
:1033C000816941F400718161816901F400710491A6
:1033D000816941F004018161816901F00401049176
:1033E000816941F0080181618069032400F00800CF
:1033F0000490B320CDE900046946074800F090F935
:10340000009469460548019400F08AF906B010BDA1
:10341000002401400010024000080140000C01405F
:103420002DE9F84300270D460446009700F06EFA98
:10343000804620688168C90508D5A06A40F0200050
:10344000A06284F824700120BDE8F8834168C905B2
:1034500003D4C06A10F4700F2AD0022000F026FBBB
:103460003B490968B1FBF0F62068036939490B4212
:103470004FEA61014FEAA1121FD1C3684FEA611CF4
:1034800013EA0C0F19D103690B4225D1C068104211
:1034900022D1142023E0681C0AD02DB100F036FAA6
:1034A000A0EB0800A84203D920680068800725D552
:1034B000206800688007EED52DE003690B4202D139
:1034C000C168114206D0026923490A4206D1C06888
:1034D000084203D1542002E0292000E0FC204643AA
:1034E000009816E0681C11D02DB100F00FFAA0EB87
:1034F0000800A8420AD90098B04207D2A06A40F05A
:103500000400A06284F8247003209DE70098401C0A
:103510000090B042E6D321686FF012000860A06A04
:1035200040F40070A06220688068C0F34240072821
:103530000CD1207B50B9A06A20F48070A062A06AF0
:10354000C00403D4A06A40F00100A06200207BE721
:10355000A4000020244992244992240070B5044616
:1035600090F8240001280DD0012084F82400204682
:10357000FFF784FC02004FF0000005D084F824001F
:10358000104670BD022070BDA16A40F2012399432C
:1035900041F48071A1621F4D23681F49AB4218D1CD
:1035A0000E6816F4702F14D0A66A46F48016A66230
:1035B0000E68760505D5A66A26F4005646F48056B0
:1035C000A662A66AF6040AD5E66A26F00606E66250
:1035D00006E0A66A26F48016A6625E68E9E7E06265
:1035E00084F824006FF00200186020688368C3F339
:1035F0004243072B05D1A84208D1096811F4702F66
:1036000004D0816841F480118160B9E7816841F498
:10361000A001F9E7002801400424014010B590F80A
:1036200021100022022905D00421816380F8202086
:10363000012010BD01680B6823F00E030B600168C8
:103640000B6823F001030B6090F84030C46B01213C
:1036500001FA03F3636080F8211080F820201046FF
:1036600010BD000010B590F821100024022903D0ED
:103670000421816301243DE001680A6822F00E0202
:103680000A6001680A6822F001020A601A4A0168A9
:10369000914201D1012121E0174A1432914201D116
:1036A00010211BE0144A2832914201D1891515E0FE
:1036B000114A3C32914201D189140FE00E4A503236
:1036C000914202D14FF4803108E00B4A64329142BA
:1036D00002D14FF4801101E04FF08071064A083AA0
:1036E0005160012180F82110002180F82010416BE9
:1036F00001B18847204610BD0800024070B504465D
:1037000000F004F90546601C02D004480078044427
:1037100000F0FCF8401BA042FAD370BD98000020D6
:103720002DE9F84FDFF8B891002409F1040A0AF1F5
:10373000040B23460F270BF1040EC9E00125A54019
:103740002A40AA427DD1674ED1F804C0ACEB0608EE
:10375000B44532D014DCBCF1030F3AD009DCBCF123
:10376000000F2AD0BCF1010F1CD0BCF1020F31D1E7
:103770001DE0BCF1110F17D0BCF1120F2AD119E0D6
:10378000B8F5881F19D006DCB8F5803F15D0B8F51C
:10379000801F1FD111E0B8F5001F0ED0B8F5041F2F
:1037A00018D10AE0CB6815E0CB681B1D12E0CB688E
:1037B00008330FE0CB680C330CE08B682BB1012B86
:1037C0004FF0080303D0456104E0042302E00561E3
:1037D00000E00023FF2A01D8064601E000F10406BC
:1037E0004FEA840501D9A5F12005D6F8008007FA33
:1037F00005FC28EA0C0803FA05F548EA0508C6F8AE
:1038000000804D68ED0062D5374DAE6946F0010687
:10381000AE61AD6924F0030605F001050095334D56
:1038200006EB050CDCF80850A607360F07FA06F879
:1038300025EA0805DFF8B880404503D14FF00008BD
:1038400017E044E0DFF8AC80404502D14FF00108BA
:103850000FE0DFF8A480404502D14FF0020808E0F5
:10386000DFF89880404502D14FF0030801E04FF0A7
:10387000040808FA06F848EA0508CCF808804D68FC
:10388000D9F80060ED034D4601D5164300E096439C
:103890002E604D68DAF80060AD03554601D5164339
:1038A00000E096432E604D68DBF80060ED025D4657
:1038B00001D5164300E096432E604D68DEF80060A7
:1038C000AD02754601D5164300E096432E60641C98
:1038D0000D682A46E5407FF431AFBDE8F88F00005F
:1038E00000040140000011100010024000000140DF
:1038F00000080140000C014000100140001401408C
:103900000AB1016170470904FBE7000001488068C3
:103910007047000098000020024881680278114436
:103920008160704798000020074810B5016841F099
:1039300010010160032000F095F8002000F006F867
:1039400000F03EF8002010BD0020024000B5014606
:1039500087B00022192000F065F8192000F054F813
:103960001348816941F400618161806905A900F40F
:1039700000600690684600F009FA00F037FA0D4939
:103980000D4AB0FBF1F10D48491E0260416040F262
:10399000E7320021C0E90321816000F0EAFE10B1A6
:1039A000012007B000BD054800F012FFF9E7000054
:1039B0000010024040420F00002C01409C140020E7
:1039C0000F4808B5816941F001018161816901F009
:1039D00001010091C16941F08051C161C0690022BB
:1039E00000F0805000900F21901E00F01BF8054859
:1039F000416821F0E06141F00071416008BD0000C4
:103A00000010024000000140002809DB00F01F0206
:103A1000012191404009800000F1E020C0F8001130
:103A200070470000F0B40E4B1B680C46C3F3022332
:103A3000C3F10705042D00D90425191D072901D25A
:103A4000002300E0DB1E012606FA05F1491E214095
:103A500099409E40761E16403143F0BC03F00BBEE9
:103A60000CED00E0064900F0070208684FF6FF037E
:103A7000184040EA0220034A1043086070470000E3
:103A80000CED00E00000FA05BFF34F8F0548016818
:103A9000054A01F4E06111430160BFF34F8F00BF9D
:103AA000FDE700000CED00E00400FA0510B529A4C4
:103AB00001461DCC86B08DE81D002AA02A4C006866
:103AC00004900020012923D002293AD010291DD1C9
:103AD00061682268D20119D5C1F38342C9031DF878
:103AE000020009D5616804AAC1F34041515C1F4A34
:103AF000B2FBF1F1484301E01D49484361684902C6
:103B000004D440005FF00301B0FBF1F006B010BD3B
:103B1000226AC2F30121012903D1920701D5C8030A
:103B2000F4E7022905D1626A920702D549F64040BE
:103B3000ECE70329EAD121688903E7D54FF2244055
:103B4000E4E700F053F96168C1F38131491C490091
:103B5000DAE7000002030405060708090A0B0C0D4A
:103B60000E0F1010010200000010024000127A0037
:103B700000093D002DE9F84305460078354CC007A3
:103B800054D0E0690026C00008D4E06940F08050BD
:103B9000E061E069012600F0805000902E48016845
:103BA000C90512D40168804641F480710160FFF7B5
:103BB000ADFE074605E000BFFFF7A8FEC01B642866
:103BC00023D8D8F80000C005F6D5206A10F440705C
:103BD00021D0A98801F4407181421CD0206A1F497C
:103BE000012220F440700A6000220A602062C007AF
:103BF00011D0FFF78BFE074641F2883808E000BF7E
:103C0000FFF784FEC11B414502D90320BDE8F883BC
:103C1000206A8007F4D5206A696820F44070084360
:103C200020621EB1E06920F08050E06128788007B2
:103C300005D56068A96820F4404008436060287892
:103C4000C00605D56068E96820F48000084360601C
:103C50000020DBE7001002400070004040044242B8
:103C60002DE9F0470F46050061D0434E306800F063
:103C70000700B84209D2306820F0070038433060AE
:103C8000306800F00700B84251D128683B4C8107EA
:103C900012D5400703D5606840F4E0606060287882
:103CA000000703D5606840F4605060606068A968F0
:103CB00020F0F000084360602878C00728D06868CA
:103CC000012810D02168022810D0890700292EDA97
:103CD000616821F0030101436160FFF717FE804630
:103CE00041F288390DE021688903EFE78901EDE7AA
:103CF000FFF70CFEA0EB0801494502D90320BDE8FF
:103D0000F0876068696800F00C00B0EB810FEFD1BC
:103D1000306800F00700B8420BD9306820F0070087
:103D200038433060306800F00700B84201D001200D
:103D3000E5E72878400705D56068E96820F4E06089
:103D4000084360602878000706D56068296920F478
:103D5000605040EAC100606000F058F86168084AAD
:103D6000C1F30311515CC840064908600648006869
:103D7000FFF7ECFD0020C2E70020024000100240E7
:103D8000F8A00008A40000209C0000200F22026080
:103D90000C4A536803F003034360536803F0F003D5
:103DA0008360536803F4E063C36052684FF4E063D8
:103DB00003EAD20202610448006800F007000860CC
:103DC00070470000001002400020024004480549EE
:103DD00000684968044AC1F30221515CC840704739
:103DE000A40000200010024008A100080448054972
:103DF00000684968044AC1F3C221515CC840704759
:103E0000A40000200010024008A1000812A185B003
:103E10000FC98DE80F0014A0144A0068049051687F
:103E2000134801F00C03042B10D0082B0ED1C1F362
:103E30008343C9031DF803000AD5516804AAC1F3DE
:103E40004041515C0A4A5043B0FBF1F005B0704765
:103E500008494843FAE70000020304050607080979
:103E60000A0B0C0D0E0F1010010200000010024092
:103E700000127A0000093D002DE9F84F040070D0CF
:103E80002078C04DC00749D06868C0F38100012880
:103E900007D06868C0F38100022809D16868C003B0
:103EA00006D52868800339D560680028E7D035E05A
:103EB0006068B0F5803F0BD010B1B0F5A02F11D0E5
:103EC000286820F480302860286820F4802002E0F0
:103ED000286840F480302860606890B1FFF716FDD4
:103EE00006460AE0286840F480202860F0E700BF1A
:103EF000FFF70CFD801B642873D828688003F7D572
:103F00000CE0FFF703FD064605E000BFFFF7FEFCEF
:103F1000801B6428F0D828688003F7D420789A4E54
:103F200080074FF001094FF0000839D5686810F09C
:103F30000C0F07D06868C0F38100022809D16868B7
:103F4000C00306D42868800714D52069012808D149
:103F500010E02069B0B1C6F80090FFF7D7FC074623
:103F600005E00AE1FFF7D2FCC01B0228C4D828688C
:103F70008007F7D52868616920F0F80040EAC100A1
:103F800028600DE0C6F80080FFF7C0FC074604E09B
:103F9000FFF7BCFCC01B022823D828688007F7D491
:103FA000207800072CD57948A169D9B1C0F80090D4
:103FB000FFF7ACFC074604E0FFF7A8FCC01B022893
:103FC0000FD8686A8007F7D571484FF4FA51006836
:103FD000B0FBF1F0009000BF0098411E0091FAD2B2
:103FE0000EE080E0C0F80080FFF790FC074604E098
:103FF000FFF78CFCC01B022875D8686A8007F7D4CD
:104000002078400760D5E8690027C00008D4E86937
:1040100040F08050E861E869012700F0805000908E
:104020005C480168C90513D40168834641F4807176
:104030000160FFF76BFC824606E000BFFFF766FCFD
:10404000A0EB0A0064284ED8DBF80000C005F5D5C7
:10405000E06801280AD008B1052813D0286A20F0AA
:1040600001002862286A20F0040002E0286A40F07B
:1040700001002862E06841F2883B98B1FFF746FCF6
:1040800082460BE0286A40F004002862EEE700BF99
:10409000FFF73CFCA0EB0A0159455AD8286A800773
:1040A000F6D50CE0FFF732FC824605E0FFF72EFC68
:1040B000A0EB0A0159454CD8286A8007F6D41FB1F5
:1040C000E86920F08050E861E06988B36968C1F36D
:1040D0008101022944D00228C6F8608004D0FFF78D
:1040E00015FC044638E034E0FFF710FC074604E016
:1040F000FFF70CFCC01B02282BD828688001F7D4DE
:10410000206AB0F5803F05D16868A16820F40030CE
:1041100008436860D4E908010843696821F4741110
:1041200008436860C6F86090FFF7F0FB044606E0BD
:1041300025E000BFFFF7EAFB001B022809D828682A
:104140008001F7D51BE000BFFFF7E0FB001B022852
:1041500002D90320BDE8F88F28688001F4D40EE06E
:104160000128F7D06868226A00F48031914204D1B6
:10417000616A00F47010884201D00120EAE7002053
:10418000E8E7000000100240000042428004424282
:10419000A40000200070004070B5040009D0606ADF
:1041A000002540B125616561A56294F8510040B1D8
:1041B0000CE0012070BD6068B0F5827FF4D0E5614D
:1041C000F2E784F85050204600F040F8022084F8CE
:1041D00051002068016821F040010160A088218918
:1041E00000F4827001F404410843A18901F40061E4
:1041F0000843217C01F002010843217D01F0010107
:104200000843218B01F400710843217F01F038013C
:10421000084394F8201001F080010843218D01F437
:104220000051084321680860A069042101EA104098
:10423000216848602068C16921F40061C161656539
:10424000012084F85100002070BD000030B585B019
:104250000024009401940294039400681749884252
:104260002AD11748816941F480518161816901F443
:1042700080510491816941F0080181618069114D8B
:1042800000F00800049028200090022001900320F4
:10429000039069462846FFF743FA1020CDE9000451
:1042A000694628460294FFF73BFA0748416841F007
:1042B000E06141F00101416005B030BD00300140D6
:1042C00000100240000C0140000001402DE9F84FB1
:1042D000044640680025984616460F464FF0040BEA
:1042E000B0F5827F01D1A06888B194F85000012810
:1042F00018D0012084F85000FFF708FB814694F89D
:1043000051004FF0000A01280ED0022582E084F807
:1043100051B013460A462046CDF8008000F036F929
:10432000BDE8F88F0220FBE7002F72D0002E70D07E
:1043300084F851B0C4F854A0A763A687E687C4F8F0
:1043400030A0A4F834A0A4F836A0C4F840A0C4F863
:1043500044A0A068B0F5004F09D12068016821F0A1
:10436000400101602068016821F4804101602068FB
:104370000168490603D4016841F040010160E0682A
:10438000D8B139E020688168C90709D0007BA16BEA
:104390000870A06B401CA063E08F401EE0870CE01B
:1043A000FFF7B4FAA0EB0901414503D3B8F1FF3F91
:1043B00003D036E0B8F1000F33D0E08F0028E1D110
:1043C0001DE020688168C90709D0C068A16B08801A
:1043D000A06B801CA063E08F401EE0870CE0FFF71D
:1043E00095FAA0EB0901414503D3B8F1FF3F03D093
:1043F00017E0B8F1000F14D0E08F0028E1D14A4651
:104400004146204602F092F908B120206065606DB7
:1044100000B10125012084F8510084F850A02846FD
:104420007EE70325F6E72DE9F84F044690F85000A3
:1044300000271D461646894601280DD04FF0010B76
:1044400084F850B0FFF762FA804694F85100BA46FB
:10445000012804D0022793E00220BDE8F88FB9F1CB
:10446000000F73D0002E71D0032084F85100C4F8DF
:1044700054A0C4F83090A686E686C4F838A0A4F804
:104480003CA0A4F83EA0C4F844A0C4F840A0A06892
:10449000B0F5004F09D12068016821F040010160AA
:1044A0002068016841F48041016020680168490684
:1044B00003D4016841F040010160E068B0F5006F8D
:1044C000606803D030B3012E24D041E008B1012E42
:1044D0001CD1206B21680088C86006E020688168D4
:1044E000890709D5216B0988C160206B801C206376
:1044F000E08E401EE08609E0FFF708FAA0EB080016
:10450000A84202D3681C01D031E07DB3E08E0028C0
:10451000E4D120E0206B21680078087306E0206871
:104520008168890709D5216B09780173206B401CCC
:104530002063E08E401EE0860AE0FFF7E7F9A0EB7B
:104540000800A84203D3681C02D010E017E06DB148
:10455000E08E0028E3D142462946204602F014F9B5
:1045600008B120206065A06818B106E0FFE70327C6
:1045700006E02068C16880680090606D00B1012786
:1045800084F851B084F850A0384666E72DE9F84F1A
:10459000044690F8500000270A9E1D4692468B461E
:1045A0004FF0010901280ED0012084F85000FFF7D8
:1045B000ADF9804694F85100616801280CD0B1F53E
:1045C000827F07D102E00220BDE8F88FA16809B917
:1045D000042801D00227C2E0BBF1000F27D0BAF1B6
:1045E000000F24D01DB394F85100042802D00520F8
:1045F00084F8510000206065C4F838A0E587A587DD
:10460000C4F830B0E586A58620646064206801683F
:10461000490603D4016841F040010160E068B0F54B
:10462000006F606805D0E8B3012D46D07FE0012718
:1046300095E008B1012D39D1206B21680088C86050
:10464000206B801C2063E08E401EE0862EE02068F8
:10465000816889070FD5E18E69B1B9F1010F0AD1DF
:10466000216B0988C160206B801C2063E08E401E96
:10467000E0864FF0000920688168C9070CD0E18FFF
:1046800051B1C068A16B0880A06B801CA063E08F53
:10469000401EE0874FF00109FFF738F9A0EB080052
:1046A000B04200E009E001D3701C50D1E08E002838
:1046B000CDD1E08F0028CAD13FE0206B216800787F
:1046C0000873206B401C2063E08E401EE0862EE0C5
:1046D0002068816889070FD5E18E69B1B9F1010FB2
:1046E0000AD1216B09780173206B401C2063E08E96
:1046F000401EE0864FF0000920688168C9070CD091
:10470000E18F51B1C068A16B0870A06B401CA06321
:10471000E08F401EE0874FF00109FFF7F7F8A0EBAC
:104720000800B04202D3701C01D010E07EB1E08ED0
:104730000028CDD1E08F0028CAD14246314620461C
:1047400002F022F828B101272020606507E0032746
:1047500005E0A06818B92068C16880680090012051
:1047600084F85100002084F8500038462CE7704748
:10477000704710B5040003D094F83D0010B107E075
:10478000012010BD002084F83C00204600F01EF8F7
:10479000022084F83D00211D206802F0F5FD012073
:1047A00084F8460084F83E0084F83F0084F8400016
:1047B00084F8410084F8420084F8430084F84400FF
:1047C00084F8450084F83D00002010BD70470000CB
:1047D00090F83D10012901D001207047022180F896
:1047E0003D100168CA6842F00102CA6000680B49C6
:1047F000884208D0B0F1804F05D00949884202D0E4
:104800000849884204D1816801F00701062903D0D4
:10481000016841F00101016000207047002C014057
:104820000004004000080040704770B5044600686E
:1048300001694FF00005C943890715D4C168C94310
:10484000890711D4E91E0161012020772068806961
:104850008007204602D0FFF7E7FF04E000F098F859
:10486000204600F096F8257720680169C94349077A
:1048700017D4C168C943490713D46FF0040101611B
:10488000022020772068806910F4407F204602D003
:10489000FFF7CAFF04E000F07BF8204600F079F84B
:1048A000257720680169C943090716D4C168C9433F
:1048B000090712D46FF008010161042020772068F5
:1048C000C0698007204602D0FFF7AEFF04E000F089
:1048D0005FF8204600F05DF8257720680169C9433C
:1048E000C90617D4C168C943C90613D46FF01001B3
:1048F0000161082020772068C06910F4407F2046BD
:1049000002D0FFF791FF04E000F042F8204600F0EB
:1049100040F8257720680169C943C90708D1C168F3
:10492000C943C90704D1891E0161204600F032F84D
:1049300020680169C943090609D4C168C943090649
:1049400005D46FF0800101612046FFF710FF206859
:104950000169C943490609D4C168C943490605D458
:104960006FF040010161204600F01EF820680169E7
:10497000C94389060BD4C168C943890607D46FF0BF
:10498000200101612046BDE87040FFF7F1BE70BD17
:104990007047704700680349884201D1FEF7BCBFE9
:1049A00070470000002C01407047704770470000BE
:1049B000F8B5026804461068D168536910F00F0F0B
:1049C0004FF0000553D003F0010601F49077374310
:1049D0005FD0C20705D0CA0503D5226C42F00102A0
:1049E0002264420705D5DA0703D0226C42F00202A6
:1049F0002264820705D5DA0703D0226C42F0040254
:104A00002264020707D501F02002324303D0226C52
:104A100042F008022264226C002A34D0800604D5B9
:104A2000880602D5204602F005FD20684069216C09
:104A3000C0F38010090700D430B3204602F0E2FC36
:104A40002068416949061BD5416921F04001416157
:104A5000A06BA8B158494163A06BFEF703FE002884
:104A600011D0A06B416B01B0BDE8F0400847830650
:104A70000FD58B060DD52046BDE8F84002F0DABC14
:104A80002046FFF793FFF8BD2046FFF78FFF256410
:104A9000F8BD266B2023012E52D1C60650D5CE0676
:104AA0004ED5106850680090506940062AD5A16B19
:104AB000086840680004000CEAD0A68D8642E7D959
:104AC000E0858869202818D0D06820F48070D060F4
:104AD0002068416921F0010141612068416921F0AC
:104AE0004001416184F83E3025632068C16821F0AF
:104AF0001001C160A06BFEF791FDA08DE18D401A01
:104B000081B219E0A08DE18D401A81B2E08D0028BC
:104B1000BED00029BCD0D06820F49070D06020684E
:104B2000426922F00102426184F83E302563206828
:104B3000C26822F01002C2602046FFF736FFF8BDBF
:104B400005062BD50D0629D594F83D002128F6D170
:104B5000A068B0F5805F01D12069B0B1206A411C26
:104B60002162216800784860E08C401E0004000C3F
:104B7000E084E4D12068C16821F08001C160206830
:104B8000C16841F04001C160F8BD206A0088C0F3EF
:104B900008005060206A801C2062E5E74006F3D5DB
:104BA0004806F1D5D168204621F04001D16084F853
:104BB0003D3000F046F9F8BDF573000870B504000B
:104BC00004D094F83D00002510B106E0012070BD2E
:104BD00084F83C50204600F023F8242084F83D005F
:104BE0002068C16821F40051C160204602F07EFCBB
:104BF0002068016921F4904101612068416921F038
:104C00002A0141612068C16841F40051C1602564F6
:104C1000202084F83D0084F83E00002070BD000094
:104C200030B585B0002400940194029403942B4D78
:104C300003682B4802210322AB4222D1C36943F40B
:104C40000033C361C36903F400330493836943F001
:104C5000040383618069234D00F004000490042064
:104C6000CDE90001039269462846FEF759FD082068
:104C7000CDE90004694628460294FEF751FD05B0CF
:104C800030BD194DAB42FAD1C36943F48023C361EF
:104C9000C36903F480230493836943F008038361A9
:104CA0008069039200F0080004902815CDE9000106
:104CB0000E4D69462846FEF733FDE814CDE90004A1
:104CC000694628460294FEF72BFD00220521272085
:104CD000FEF7A8FE2720FEF797FED0E7004400402D
:104CE000001002400008014000480040000C014054
:104CF00090F83E30202B0ED159B152B190F83C3093
:104D0000012B08D0012380F83C300023036302F01C
:104D100049BC0120704702207047000070B505466D
:104D20000068164988421FD1154C207AE0B104F181
:104D30000801002301220E46124800F029F8FEF770
:104D4000E5FDC4F80C04E28804F10900217A11544D
:104D5000E28840F2FF30824201D2521CE2800122FE
:104D600031460948FFF7C4FF08492868884203D143
:104D7000BDE87040FEF776B970BD00000048004005
:104D8000881700201414002058140020004400400C
:104D90002DE9F843044690F83D001F4616460D469F
:104DA00020284CD1C5B1BEB194F83C00012846D0B2
:104DB000012084F83C004FF00008C4F84080212016
:104DC00084F83D00FEF7A2FDA6848146E684A06833
:104DD000B0F5805F03D004E00120BDE8F8832069CE
:104DE00028B12E465FF0000584F83C800EE00026D6
:104DF000FAE78021204602F0F0FBA0B9AEB116F828
:104E0000010B21684860E08C401EE084E08C4B463A
:104E10004FF0000200970028EBD14FF040012046F0
:104E200002F0DBFB30B10320D7E735F8020BC0F30B
:104E30000800E6E7202084F83D000020CDE70220AE
:104E4000CBE77047FEF720FEFEE700000C4810B5E8
:104E50000A490160891581600121017300220275F0
:104E60004FF46023C36142600161FEF70DFA002830
:104E700003D0BDE81040FEF70CB910BD002401407E
:104E80002813002010B59EB000201C901D90012119
:104E90001CA803F033F8174C1C22174920666846FB
:104EA000FBF7EAFD0021684603F047F81249206548
:104EB0001C221C3107A8FBF7DFFD002107A803F027
:104EC0003CF80D4960651C2238310EA8FBF7D4FD73
:104ED00000210EA803F031F80749A0651C225431C7
:104EE00015A8FBF7C9FD002115A803F026F8E06519
:104EF0001EB010BD000000206CA000082DE9F04F8E
:104F000085B0344800240294816941F01001816128
:104F1000816901F010010491816941F0040181610E
:104F2000816901F004010491816941F00801816106
:104F30008069022500F00800CDE903504FF4604776
:104F40000126CDE9007669462348FEF7E9FB4FF4D8
:104F50009058DFF888B0CDE9008669465846CDE91B
:104F60000245FEF7DDFB4FF4C0708DE83100694665
:104F70005846FEF7D5FB0420CDE90004DFF860A019
:104F8000694650460294FEF7CBFB4BF2C009CDE9CF
:104F9000009669465046CDE90245FEF7C1FB4FF445
:104FA0004060CDE90004694658460294FEF7B8FB1C
:104FB000002239460848FEF7A3FC00224146584625
:104FC000FEF79EFC002249465046FEF799FC05B0CC
:104FD000BDE8F08F001002400010014000080140C1
:104FE000000C0140104810B50E4901604FF4827169
:104FF000416000218160C1604FF400720161C0E92D
:1050000005122822C0E90721416281620A21C1629A
:10501000FFF7C2F8002803D0BDE81040FEF739B80A
:1050200010BD000000300140BC1300200C4810B53A
:105030000A4901604FF4E1314160002181600C2296
:10504000C160C0E904128161C161FFF7B7FD0028AA
:1050500003D0BDE81040FEF71CB810BD004400406E
:10506000141400200C4810B50A4901604FF4E131D6
:105070004160002181600C22C160C0E9041281619D
:10508000C161FFF79BFD002803D0BDE81040FEF78B
:1050900000B810BD0048004058140020FEE7FEE7AD
:1050A00070B54FF4FA643BA221463BA001F078FAB8
:1050B0004FF4007631463C48FBF732FD3B4B3CA2B7
:1050C00031463948FBF7ACF9374801F0BFFA2046C2
:1050D000FEF714FB40F6B8352EA229463BA001F09E
:1050E0005FFA2CA229463EA001F05AFA31462E481A
:1050F000FBF716FD3FA001F0A9FA2846FEF7FEFADD
:1051000024A2214624A001F04BFA31462648FBF7A1
:1051100007FD3C4B26A231462348FBF781F9224884
:1051200001F094FA2046FEF7E9FA1AA2294627A0D0
:1051300001F036FA17A2294629A001F031FA3146CA
:105140001948FBF7EDFC2BA001F080FA2846FEF78A
:10515000D5FA10A2214610A001F022FA31461248D9
:10516000FBF7DEFC284B12A231460F48FBF758F93B
:105170000D4801F06BFA2046FEF7C0FA05A2294659
:1051800012A001F00DFA2946BDE8704001A214A05A
:1051900001F006BA4F4B000041542B48545450497B
:1051A0004E49540D0A000000C4020020C40700202C
:1051B00041542B48545450504152413D2255524C79
:1051C000222C222573220D0A0000000041542B4896
:1051D000545450414354494F4E3D300D0A00000095
:1051E00041542B48545450524541443D302C3530A5
:1051F000300D0A0041542B485454505445524D0D23
:105200000A000000C4080020C40A002070B50C4643
:1052100003464FF4007523A229462948FBF700F9FD
:10522000274801F013FA4FF47A763046FEF766FA13
:1052300024A229462248FBF7F3F8214801F006FA98
:105240003046FEF75BFA2046FBF7A6FB034628A292
:1052500029461B48FBF7E4F8194801F0F7F93046F6
:10526000FEF74CFA234628A229461548FBF7D8F842
:10527000134801F0EBF93046FEF740FA23A001F0A5
:10528000E5F940F6B8342046FEF738FA24A001F0DC
:10529000DDF92046FEF732FA2946BDE8704008489D
:1052A000FBF73EBC41542B48545450504152413DB1
:1052B0002255524C222C222573220D0A0000000098
:1052C000C40D002041542B48545450504152413D8C
:1052D00022434F4E54454E54222C226170706C690B
:1052E000636174696F6E2F6A736F6E220D0A00001E
:1052F00041542B48545450444154413D25642C3171
:10530000303030300D0A00002573000041542B4826
:10531000545450414354494F4E3D310D0A00000052
:1053200041542B485454505445524D0D0A0000002E
:1053300070B50C4605464FF400762AA231462D483A
:10534000FBF76EF82B4801F081F94FF4FA60FEF795
:10535000D5F92B4628A231462648FBF761F82548A7
:1053600001F074F94FF47A752846FEF7C7F929A2BF
:1053700031462048FBF754F81E4801F067F92846EB
:10538000FEF7BCF92046FBF707FB03462CA231468B
:105390001848FBF745F8174801F058F92846FEF77A
:1053A000ADF923462CA231461248FBF739F81148D3
:1053B00001F04CF92846FEF7A1F928A001F046F9C2
:1053C00040F6B8342046FEF799F929A001F03EF9DD
:1053D0002046FEF793F93146BDE870400548FBF7DB
:1053E0009FBB000041542B48545450494E49540D22
:1053F0000A000000C402002041542B48545450506D
:105400004152413D2255524C222C222573220D0A35
:105410000000000041542B48545450504152413D2B
:1054200022434F4E54454E54222C226170706C69B9
:10543000636174696F6E2F6A736F6E220D0A0000CC
:1054400041542B48545450444154413D25642C311F
:10545000303030300D0A00002573000041542B48D5
:10546000545450414354494F4E3D310D0A00000001
:1054700041542B485454505445524D0D0A000000DD
:1054800070B5642324222EA13748FFF781FC002049
:1054900000F0C0FF4FF47A742046FEF72FF933A0D6
:1054A00001F0D4F82046FEF729F940F6B83532A2CB
:1054B000294632A001F074F82FA2294632A001F04B
:1054C0006FF82DA2214633A001F06AF82AA22146E6
:1054D00034A001F065F828A2610036A001F060F860
:1054E00037A001F0B3F82046FEF708F942F2107534
:1054F00021A229463CA001F053F86800FEF7FEF80F
:105500001DA221463BA001F04BF81BA221463CA066
:1055100001F046F82046FEF7F1F817A269103CA00A
:1055200001F03EF814A2294640A001F039F8BDE888
:1055300070406423242241A10B48FFF729BC0000DE
:105540002D2D3E4247494E2053494D373630305F6E
:10555000496E69742D2D2D2D2D2D2D2D2D2D2D2D9B
:105560002D2D2D0A000000001414002041542B435F
:1055700046554E3D310D0A004F4B000041542B4320
:105580004349440D0A00000041542B435245473F14
:105590000D0A000041542B43474154543D310D0A3C
:1055A0000000000041542B43474143543D312C310E
:1055B0000D0A000041542B434E4D503D320D0A0060
:1055C00041542B434744434F4E543D312C224950C4
:1055D000222C22696F742E74656C656E65742E6260
:1055E00065220D0A0000000041542B434E554D0D1D
:1055F0000A00000041542B434D47463D310D0A003F
:1056000041542B434E4D493D322C310D0A000000D0
:1056100041542B43504D533D22534D222C22534D88
:10562000222C22534D220D0A0000000041542B432E
:105630004D47443D2C340D0A000000002D2D3E4501
:105640004E442053494D373630305F496E69742DD2
:105650002D2D2D2D2D2D2D2D2D2D2D2D2D2D2D0A9D
:105660000000000010B504A000F0F0FFBDE81040FD
:1056700049F64040FEF742B841542B43504F460D87
:105680000A0000002DE9F04FF748F84989B000689A
:10569000884201DCF6A103E0F849884203DBF8A167
:1056A000F948FBF755F9F848F8A1B5300490039094
:1056B000FBF73CF998B13A21FBF72EF9F7A1001D51
:1056C000FBF724F904000AD0FBF712F9054620463F
:1056D00002F0C4F8C82D02D1F1A000F0B7FFF54ADE
:1056E000F5A10398FAF7D0FFF84EF24C00254FF4DD
:1056F0007A7B4FF00109012819D0F5A10398FBF737
:1057000015F900281DD0F4A25946F4A000F048FF76
:1057100004F11C02F4A1F848FAF76EFEF64800F016
:1057200095FF1A22F5A1F448FAF766FE23E1FAA0E4
:1057300002F094F82278FBA1EF48FAF75DFEEE48FC
:1057400025E1FCA10398FBF7F1F808B3012251030E
:105750003046FEF7D5F8012291033046FEF7D0F827
:105760000122D1033046FEF7CBF884F80190DAA28B
:105770005946DAA000F014FFCE4ADBA11C32DE4805
:10578000FAF73AFEDC4800F061FF1A22EBA127E0AD
:10579000F0A10398FBF7CAF870B300224FF4005150
:1057A0003046FEF7ADF800224FF480413046FEF758
:1057B000A7F800224FF400413046FEF7A1F86570CB
:1057C000C5A25946C5A000F0EBFEBA4AC6A11C32DC
:1057D000C948FAF711FEC84800F038FF1A22DFA1C5
:1057E000C548FAF709FEC44800F030FF4FF4FA71DB
:1057F000C148FBF795F9FEE0DFA10398FBF796F8A7
:105800001A27C8B1B4A25946B4A000F0C9FEA94AEB
:10581000B5A11C32B848FAF7EFFDB74800F016FF03
:10582000D848994BCDE900077833A3F16402D6A19B
:10583000B148FAF7E1FD9EE0E1A10398FBF776F8A5
:10584000E8B1A5A25946A5A000F0AAFE994AA6A1D2
:105850001C32A948FAF7D0FDA74800F0F7FEDC4853
:10586000006804F091F98046DA488A46006804F03E
:105870008BF90B460246D8A1CDF8008021E0DCA1CF
:105880000398FBF753F810B393A2594693A000F086
:1058900087FE884A94A11C329748FAF7ADFD9648D6
:1058A00000F0D4FED648006804F06EF98046D54872
:1058B0008A46006804F068F90B460246D2A1CDF88A
:1058C0000080CDE901A78C48FAF796FD53E0D4A1FA
:1058D0000398FBF72BF8B0B17FA259467FA000F0E8
:1058E0005FFE744A80A11C328348FAF785FD824826
:1058F00000F0ACFECD48006804F046F90B460246C5
:10590000CBA1009734E0CEA10398FBF70FF8A0B12C
:1059100071A2594671A000F043FE664A72A11C3282
:105920007548FAF769FD744800F090FE1A23564A4C
:10593000C6A17148FAF760FD1DE0C9A10398FAF706
:10594000F5FF38B364A2594664A000F029FE594A15
:1059500065A11C326848FAF74FFD674800F076FEF3
:10596000C248006804F010F90B460246C0A1009737
:105970006148FAF741FD604800F068FE4FF4FA71A3
:105980005D48FBF7CDF8BEA000F060FEC3A000F0BC
:105990005DFE30E0C5A10398FAF7C8FF58B34EA2E8
:1059A00059464EA000F0FCFD424A4FA11C3252481D
:1059B000FAF722FD504800F049FE1A22BDA14E48D8
:1059C000FAF71AFD4C4800F041FE4FF4FA714A48CC
:1059D000FBF7A6F84FF47A6002F084FABFF34F8F1A
:1059E000BD480168BD4A01F4E06111430160BFF3A5
:1059F0004F8F00BFFDE7BAA10398FAF797FF002881
:105A000030D035A25F465946B7A000F0C9FD32A29A
:105A10004FF4FA61B7A000F0C3FD6078002822D0EF
:105A200000224FF400513046FDF76AFF00224FF488
:105A300080413046FDF764FF00224FF400413046BC
:105A4000FDF75EFF24A2394624A000F0A9FD194A03
:105A500025A11C322848FAF7CFFC274800F0F6FDB4
:105A60001A224BE15FE180E1380000200000A040F5
:105A700044495341524D454400000000000020417C
:105A800041524D4544000000DC1600200D0A2B4811
:105A9000545450414354494F4E3A00002C000000EA
:105AA00041542B48545450524541443D302C3530DC
:105AB000300D0A00680000200A2B434D54493A205B
:105AC00022534D222C25686864000000001001401C
:105AD000686920736D6176004F4B000041542B4381
